{
  "contractName": "MedeastMedicenses",
  "abi": [
    {
      "inputs": [],
      "stateMutability": "nonpayable",
      "type": "constructor"
    },
    {
      "inputs": [],
      "name": "medicines",
      "outputs": [
        {
          "internalType": "bool",
          "name": "initialized",
          "type": "bool"
        },
        {
          "internalType": "uint256",
          "name": "BachNumber",
          "type": "uint256"
        },
        {
          "internalType": "uint256",
          "name": "Weight",
          "type": "uint256"
        },
        {
          "internalType": "uint256",
          "name": "deployDate",
          "type": "uint256"
        },
        {
          "internalType": "uint256",
          "name": "MfgDate",
          "type": "uint256"
        },
        {
          "internalType": "uint256",
          "name": "ExpDate",
          "type": "uint256"
        },
        {
          "internalType": "uint256",
          "name": "PricePerPack",
          "type": "uint256"
        },
        {
          "internalType": "uint256",
          "name": "NumberOfPakages",
          "type": "uint256"
        },
        {
          "internalType": "string",
          "name": "MfgLicNo",
          "type": "string"
        },
        {
          "internalType": "string",
          "name": "CompanyName",
          "type": "string"
        },
        {
          "internalType": "string",
          "name": "MedicineName",
          "type": "string"
        }
      ],
      "stateMutability": "view",
      "type": "function"
    },
    {
      "inputs": [
        {
          "internalType": "uint256",
          "name": "_BachNumber",
          "type": "uint256"
        },
        {
          "internalType": "uint256",
          "name": "_Weight",
          "type": "uint256"
        },
        {
          "internalType": "uint256",
          "name": "_deployDate",
          "type": "uint256"
        },
        {
          "internalType": "uint256",
          "name": "_MfgDate",
          "type": "uint256"
        },
        {
          "internalType": "uint256",
          "name": "_ExpDate",
          "type": "uint256"
        },
        {
          "internalType": "uint256",
          "name": "_PricePerPack",
          "type": "uint256"
        },
        {
          "internalType": "uint256",
          "name": "_NumberOfPakages",
          "type": "uint256"
        },
        {
          "internalType": "string",
          "name": "_MfgLicNo",
          "type": "string"
        },
        {
          "internalType": "string",
          "name": "_CompanyName",
          "type": "string"
        },
        {
          "internalType": "string",
          "name": "_MedicineName",
          "type": "string"
        }
      ],
      "name": "setData",
      "outputs": [],
      "stateMutability": "nonpayable",
      "type": "function"
    },
    {
      "inputs": [],
      "name": "getData",
      "outputs": [
        {
          "internalType": "uint256",
          "name": "",
          "type": "uint256"
        },
        {
          "internalType": "uint256",
          "name": "",
          "type": "uint256"
        },
        {
          "internalType": "uint256",
          "name": "",
          "type": "uint256"
        },
        {
          "internalType": "uint256",
          "name": "",
          "type": "uint256"
        },
        {
          "internalType": "uint256",
          "name": "",
          "type": "uint256"
        },
        {
          "internalType": "uint256",
          "name": "",
          "type": "uint256"
        },
        {
          "internalType": "uint256",
          "name": "",
          "type": "uint256"
        },
        {
          "internalType": "string",
          "name": "",
          "type": "string"
        },
        {
          "internalType": "string",
          "name": "",
          "type": "string"
        },
        {
          "internalType": "string",
          "name": "",
          "type": "string"
        }
      ],
      "stateMutability": "view",
      "type": "function"
    }
  ],
  "bytecode": "0x60806040523480156200001157600080fd5b5060008060000160006101000a81548160ff021916908315150217905550600080600101819055506000806002018190555060008060030181905550600080600401819055506000806005018190555060008060060181905550600080600701819055506040518060400160405280600481526020017f4e6f6e650000000000000000000000000000000000000000000000000000000081525060006008019080519060200190620000c59291906200016e565b506040518060400160405280600481526020017f4e6f6e650000000000000000000000000000000000000000000000000000000081525060006009019080519060200190620001169291906200016e565b506040518060400160405280600481526020017f4e6f6e65000000000000000000000000000000000000000000000000000000008152506000600a019080519060200190620001679291906200016e565b5062000282565b8280546200017c906200024d565b90600052602060002090601f016020900481019282620001a05760008555620001ec565b82601f10620001bb57805160ff1916838001178555620001ec565b82800160010185558215620001ec579182015b82811115620001eb578251825591602001919060010190620001ce565b5b509050620001fb9190620001ff565b5090565b5b808211156200021a57600081600090555060010162000200565b5090565b7f4e487b7100000000000000000000000000000000000000000000000000000000600052602260045260246000fd5b600060028204905060018216806200026657607f821691505b6020821081036200027c576200027b6200021e565b5b50919050565b610b8780620002926000396000f3fe608060405234801561001057600080fd5b50600436106100415760003560e01c80633bc5de3014610046578063752ea7641461006d578063a0e4552e14610095575b600080fd5b61004e6100b1565b6040516100649a999897969594939291906106bd565b60405180910390f35b6100756102be565b60405161008c9b9a99989796959493929190610789565b60405180910390f35b6100af60048036038101906100aa91906109be565b6104ab565b005b60008060008060008060006060806060600060010154600060020154600060030154600060040154600060050154600060060154600060070154600060080160006009016000600a0182805461010690610b20565b80601f016020809104026020016040519081016040528092919081815260200182805461013290610b20565b801561017f5780601f106101545761010080835404028352916020019161017f565b820191906000526020600020905b81548152906001019060200180831161016257829003601f168201915b5050505050925081805461019290610b20565b80601f01602080910402602001604051908101604052809291908181526020018280546101be90610b20565b801561020b5780601f106101e05761010080835404028352916020019161020b565b820191906000526020600020905b8154815290600101906020018083116101ee57829003601f168201915b5050505050915080805461021e90610b20565b80601f016020809104026020016040519081016040528092919081815260200182805461024a90610b20565b80156102975780601f1061026c57610100808354040283529160200191610297565b820191906000526020600020905b81548152906001019060200180831161027a57829003601f168201915b50505050509050995099509950995099509950995099509950995090919293949596979899565b60008060000160009054906101000a900460ff169080600101549080600201549080600301549080600401549080600501549080600601549080600701549080600801805461030c90610b20565b80601f016020809104026020016040519081016040528092919081815260200182805461033890610b20565b80156103855780601f1061035a57610100808354040283529160200191610385565b820191906000526020600020905b81548152906001019060200180831161036857829003601f168201915b50505050509080600901805461039a90610b20565b80601f01602080910402602001604051908101604052809291908181526020018280546103c690610b20565b80156104135780601f106103e857610100808354040283529160200191610413565b820191906000526020600020905b8154815290600101906020018083116103f657829003601f168201915b50505050509080600a01805461042890610b20565b80601f016020809104026020016040519081016040528092919081815260200182805461045490610b20565b80156104a15780601f10610476576101008083540402835291602001916104a1565b820191906000526020600020905b81548152906001019060200180831161048457829003601f168201915b505050505090508b565b60016000800160006101000a81548160ff021916908315150217905550896000600101819055508860006002018190555087600060030181905550866000600401819055508560006005018190555084600060060181905550836000600701819055508260006008019080519060200190610527929190610568565b508160006009019080519060200190610541929190610568565b50806000600a01908051906020019061055b929190610568565b5050505050505050505050565b82805461057490610b20565b90600052602060002090601f01602090048101928261059657600085556105dd565b82601f106105af57805160ff19168380011785556105dd565b828001600101855582156105dd579182015b828111156105dc5782518255916020019190600101906105c1565b5b5090506105ea91906105ee565b5090565b5b808211156106075760008160009055506001016105ef565b5090565b6000819050919050565b61061e8161060b565b82525050565b600081519050919050565b600082825260208201905092915050565b60005b8381101561065e578082015181840152602081019050610643565b8381111561066d576000848401525b50505050565b6000601f19601f8301169050919050565b600061068f82610624565b610699818561062f565b93506106a9818560208601610640565b6106b281610673565b840191505092915050565b6000610140820190506106d3600083018d610615565b6106e0602083018c610615565b6106ed604083018b610615565b6106fa606083018a610615565b6107076080830189610615565b61071460a0830188610615565b61072160c0830187610615565b81810360e08301526107338186610684565b90508181036101008301526107488185610684565b905081810361012083015261075d8184610684565b90509b9a5050505050505050505050565b60008115159050919050565b6107838161076e565b82525050565b60006101608201905061079f600083018e61077a565b6107ac602083018d610615565b6107b9604083018c610615565b6107c6606083018b610615565b6107d3608083018a610615565b6107e060a0830189610615565b6107ed60c0830188610615565b6107fa60e0830187610615565b81810361010083015261080d8186610684565b90508181036101208301526108228185610684565b90508181036101408301526108378184610684565b90509c9b505050505050505050505050565b6000604051905090565b600080fd5b600080fd5b6108668161060b565b811461087157600080fd5b50565b6000813590506108838161085d565b92915050565b600080fd5b600080fd5b7f4e487b7100000000000000000000000000000000000000000000000000000000600052604160045260246000fd5b6108cb82610673565b810181811067ffffffffffffffff821117156108ea576108e9610893565b5b80604052505050565b60006108fd610849565b905061090982826108c2565b919050565b600067ffffffffffffffff82111561092957610928610893565b5b61093282610673565b9050602081019050919050565b82818337600083830152505050565b600061096161095c8461090e565b6108f3565b90508281526020810184848401111561097d5761097c61088e565b5b61098884828561093f565b509392505050565b600082601f8301126109a5576109a4610889565b5b81356109b584826020860161094e565b91505092915050565b6000806000806000806000806000806101408b8d0312156109e2576109e1610853565b5b60006109f08d828e01610874565b9a50506020610a018d828e01610874565b9950506040610a128d828e01610874565b9850506060610a238d828e01610874565b9750506080610a348d828e01610874565b96505060a0610a458d828e01610874565b95505060c0610a568d828e01610874565b94505060e08b013567ffffffffffffffff811115610a7757610a76610858565b5b610a838d828e01610990565b9350506101008b013567ffffffffffffffff811115610aa557610aa4610858565b5b610ab18d828e01610990565b9250506101208b013567ffffffffffffffff811115610ad357610ad2610858565b5b610adf8d828e01610990565b9150509295989b9194979a5092959850565b7f4e487b7100000000000000000000000000000000000000000000000000000000600052602260045260246000fd5b60006002820490506001821680610b3857607f821691505b602082108103610b4b57610b4a610af1565b5b5091905056fea264697066735822122088a3bd706d89db220873445eeb09ad200f2d9b1384a77884ae809d7e986404b064736f6c634300080d0033",
  "immutableReferences": {},
  "source": "// SPDX-License-Identifier: GPL-3.0\npragma solidity >=0.7.0 <0.9.0;\n\ncontract MedeastMedicenses {\n    /*\n    This struct contans necesory filds which the manofactur will fill\n    address Manufacturat -> this will hold the addras of the Manafactur.\n    uint BachNumber -> this will hold the bach number of the medicans.\n    uint Weight -> this will hold the total weight of the pakage.\n    uint deployDate -> this will hold the date whean the contract was made.\n    uint MfgDate -> this will hold the manafatur date of the medicans.\n    uint ExpDate -> this will hold the expire date of the medicans.\n    uint PricePerPack -> this will hold the price of the indavisul medicans in the pakages.\n    uint NumberOfPakages -> this will hold the total number of pakeges of medicans in the box.\n    string MfgLicNo -> thos holds the lisance of the mafactur.\n    string CompanyName -> this will hold the name ofn the compane.\n    string MedicineName -> this will hold the name of the medicins.\n    */\n    struct Medicine {\n        bool initialized;\n        uint256 BachNumber;\n        uint256 Weight;\n        uint256 deployDate;\n        uint256 MfgDate;\n        uint256 ExpDate;\n        uint256 PricePerPack;\n        uint256 NumberOfPakages;\n        string MfgLicNo;\n        string CompanyName;\n        string MedicineName;\n    }\n\n    /*\n    hear we are making objacts of the struct\n    in this case \n    medicines -> object of Medicine\n    */\n    Medicine public medicines;\n\n    /*\n    this constructor is just inatising defalt values\n    for medicines -> object of Medicine\n        iotdata -> object of IotData\n    */\n    constructor() {\n        medicines.initialized = false;\n        medicines.BachNumber = 0;\n        medicines.Weight = 0;\n        medicines.deployDate = 0;\n        medicines.MfgDate = 0;\n        medicines.ExpDate = 0;\n        medicines.PricePerPack = 0;\n        medicines.NumberOfPakages = 0;\n        medicines.MfgLicNo = 'None';\n        medicines.CompanyName = 'None';\n        medicines.MedicineName = 'None';\n    }\n\n    /*\n    this function will set data which will be send by the jascript.\n    */\n    function setData(\n        uint256 _BachNumber,\n        uint256 _Weight,\n        uint256 _deployDate,\n        uint256 _MfgDate,\n        uint256 _ExpDate,\n        uint256 _PricePerPack,\n        uint256 _NumberOfPakages,\n        string memory _MfgLicNo,\n        string memory _CompanyName,\n        string memory _MedicineName\n    ) public {\n        medicines.initialized = true;\n        medicines.BachNumber = _BachNumber;\n        medicines.Weight = _Weight;\n        medicines.deployDate = _deployDate;\n        medicines.MfgDate = _MfgDate;\n        medicines.ExpDate = _ExpDate;\n        medicines.PricePerPack = _PricePerPack;\n        medicines.NumberOfPakages = _NumberOfPakages;\n        medicines.MfgLicNo = _MfgLicNo;\n        medicines.CompanyName = _CompanyName;\n        medicines.MedicineName = _MedicineName;\n    }\n\n    /*\n    this function will get the datya from the blockchane and we \n    will use javascript to pull the data.\n    */\n    function getData()\n        public\n        view\n        returns (\n            uint256,\n            uint256,\n            uint256,\n            uint256,\n            uint256,\n            uint256,\n            uint256,\n            string memory,\n            string memory,\n            string memory\n        )\n    {\n        return (\n            medicines.BachNumber,\n            medicines.Weight,\n            medicines.deployDate,\n            medicines.MfgDate,\n            medicines.ExpDate,\n            medicines.PricePerPack,\n            medicines.NumberOfPakages,\n            medicines.MfgLicNo,\n            medicines.CompanyName,\n            medicines.MedicineName\n        );\n    }\n}\n",
  "sourcePath": "/home/joydip/Desktop/Medeast/smart-contrac/contracts/MedeastContrac.sol",
  "compiler": {
    "name": "solc",
    "version": "0.8.13+commit.abaa5c0e.Emscripten.clang"
  },
  "schemaVersion": "3.4.7",
  "updatedAt": "2022-05-27T12:45:20.400Z",
  "devdoc": {
    "kind": "dev",
    "methods": {},
    "version": 1
  },
  "userdoc": {
    "kind": "user",
    "methods": {},
    "version": 1
  }
}