{
  "contractName": "Medeast",
  "abi": [
    {
      "inputs": [],
      "stateMutability": "nonpayable",
      "type": "constructor"
    },
    {
      "inputs": [],
      "name": "iotdata",
      "outputs": [
        {
          "internalType": "string",
          "name": "longatude",
          "type": "string"
        },
        {
          "internalType": "string",
          "name": "latatude",
          "type": "string"
        },
        {
          "internalType": "uint256",
          "name": "tempratur",
          "type": "uint256"
        },
        {
          "internalType": "uint256",
          "name": "humedate",
          "type": "uint256"
        }
      ],
      "stateMutability": "view",
      "type": "function",
      "constant": true
    },
    {
      "inputs": [],
      "name": "medicines",
      "outputs": [
        {
          "internalType": "bool",
          "name": "initialized",
          "type": "bool"
        },
        {
          "internalType": "uint256",
          "name": "BachNumber",
          "type": "uint256"
        },
        {
          "internalType": "uint256",
          "name": "Weight",
          "type": "uint256"
        },
        {
          "internalType": "uint256",
          "name": "deployDate",
          "type": "uint256"
        },
        {
          "internalType": "uint256",
          "name": "MfgDate",
          "type": "uint256"
        },
        {
          "internalType": "uint256",
          "name": "ExpDate",
          "type": "uint256"
        },
        {
          "internalType": "uint256",
          "name": "PricePerPack",
          "type": "uint256"
        },
        {
          "internalType": "uint256",
          "name": "NumberOfPakages",
          "type": "uint256"
        },
        {
          "internalType": "string",
          "name": "MfgLicNo",
          "type": "string"
        },
        {
          "internalType": "string",
          "name": "CompanyName",
          "type": "string"
        },
        {
          "internalType": "string",
          "name": "MedicineName",
          "type": "string"
        }
      ],
      "stateMutability": "view",
      "type": "function",
      "constant": true
    },
    {
      "inputs": [
        {
          "internalType": "uint256",
          "name": "_BachNumber",
          "type": "uint256"
        },
        {
          "internalType": "uint256",
          "name": "_Weight",
          "type": "uint256"
        },
        {
          "internalType": "uint256",
          "name": "_deployDate",
          "type": "uint256"
        },
        {
          "internalType": "uint256",
          "name": "_MfgDate",
          "type": "uint256"
        },
        {
          "internalType": "uint256",
          "name": "_ExpDate",
          "type": "uint256"
        },
        {
          "internalType": "uint256",
          "name": "_PricePerPack",
          "type": "uint256"
        },
        {
          "internalType": "uint256",
          "name": "_NumberOfPakages",
          "type": "uint256"
        },
        {
          "internalType": "string",
          "name": "_MfgLicNo",
          "type": "string"
        },
        {
          "internalType": "string",
          "name": "_CompanyName",
          "type": "string"
        },
        {
          "internalType": "string",
          "name": "_MedicineName",
          "type": "string"
        }
      ],
      "name": "setData",
      "outputs": [],
      "stateMutability": "nonpayable",
      "type": "function"
    },
    {
      "inputs": [
        {
          "internalType": "string",
          "name": "_longatude",
          "type": "string"
        },
        {
          "internalType": "string",
          "name": "_latatude",
          "type": "string"
        },
        {
          "internalType": "uint256",
          "name": "_tempratur",
          "type": "uint256"
        },
        {
          "internalType": "uint256",
          "name": "_humedate",
          "type": "uint256"
        }
      ],
      "name": "setIotData",
      "outputs": [],
      "stateMutability": "nonpayable",
      "type": "function"
    },
    {
      "inputs": [],
      "name": "getData",
      "outputs": [
        {
          "internalType": "uint256",
          "name": "",
          "type": "uint256"
        },
        {
          "internalType": "uint256",
          "name": "",
          "type": "uint256"
        },
        {
          "internalType": "uint256",
          "name": "",
          "type": "uint256"
        },
        {
          "internalType": "uint256",
          "name": "",
          "type": "uint256"
        },
        {
          "internalType": "uint256",
          "name": "",
          "type": "uint256"
        },
        {
          "internalType": "uint256",
          "name": "",
          "type": "uint256"
        },
        {
          "internalType": "uint256",
          "name": "",
          "type": "uint256"
        },
        {
          "internalType": "string",
          "name": "",
          "type": "string"
        },
        {
          "internalType": "string",
          "name": "",
          "type": "string"
        },
        {
          "internalType": "string",
          "name": "",
          "type": "string"
        }
      ],
      "stateMutability": "view",
      "type": "function",
      "constant": true
    },
    {
      "inputs": [],
      "name": "getIotData",
      "outputs": [
        {
          "internalType": "string",
          "name": "",
          "type": "string"
        },
        {
          "internalType": "string",
          "name": "",
          "type": "string"
        },
        {
          "internalType": "uint256",
          "name": "",
          "type": "uint256"
        },
        {
          "internalType": "uint256",
          "name": "",
          "type": "uint256"
        }
      ],
      "stateMutability": "view",
      "type": "function",
      "constant": true
    }
  ],
  "bytecode": "0x60806040523480156200001157600080fd5b5060008060000160006101000a81548160ff021916908315150217905550600080600101819055506000806002018190555060008060030181905550600080600401819055506000806005018190555060008060060181905550600080600701819055506040518060400160405280600481526020017f4e6f6e650000000000000000000000000000000000000000000000000000000081525060006008019080519060200190620000c592919062000226565b506040518060400160405280600481526020017f4e6f6e6500000000000000000000000000000000000000000000000000000000815250600060090190805190602001906200011692919062000226565b506040518060400160405280600481526020017f4e6f6e65000000000000000000000000000000000000000000000000000000008152506000600a0190805190602001906200016792919062000226565b506040518060400160405280600481526020017f4e6f6e6500000000000000000000000000000000000000000000000000000000815250600b6000019080519060200190620001b892919062000226565b506040518060400160405280600481526020017f4e6f6e6500000000000000000000000000000000000000000000000000000000815250600b60010190805190602001906200020992919062000226565b506000600b600201819055506000600b600301819055506200033a565b828054620002349062000305565b90600052602060002090601f016020900481019282620002585760008555620002a4565b82601f106200027357805160ff1916838001178555620002a4565b82800160010185558215620002a4579182015b82811115620002a357825182559160200191906001019062000286565b5b509050620002b39190620002b7565b5090565b5b80821115620002d2576000816000905550600101620002b8565b5090565b7f4e487b7100000000000000000000000000000000000000000000000000000000600052602260045260246000fd5b600060028204905060018216806200031e57607f821691505b602082108103620003345762000333620002d6565b5b50919050565b610fb6806200034a6000396000f3fe608060405234801561001057600080fd5b50600436106100625760003560e01c8063229892b5146100675780633bc5de3014610088578063752ea764146100af578063988cfa29146100d7578063a0e4552e146100f8578063fe46a8e814610114575b600080fd5b61006f610130565b60405161007f94939291906109fa565b60405180910390f35b61009061025e565b6040516100a69a99989796959493929190610a4d565b60405180910390f35b6100b761046b565b6040516100ce9b9a99989796959493929190610b19565b60405180910390f35b6100df610658565b6040516100ef94939291906109fa565b60405180910390f35b610112600480360381019061010d9190610d4e565b61079a565b005b61012e60048036038101906101299190610e81565b610857565b005b600b80600001805461014190610f4f565b80601f016020809104026020016040519081016040528092919081815260200182805461016d90610f4f565b80156101ba5780601f1061018f576101008083540402835291602001916101ba565b820191906000526020600020905b81548152906001019060200180831161019d57829003601f168201915b5050505050908060010180546101cf90610f4f565b80601f01602080910402602001604051908101604052809291908181526020018280546101fb90610f4f565b80156102485780601f1061021d57610100808354040283529160200191610248565b820191906000526020600020905b81548152906001019060200180831161022b57829003601f168201915b5050505050908060020154908060030154905084565b60008060008060008060006060806060600060010154600060020154600060030154600060040154600060050154600060060154600060070154600060080160006009016000600a018280546102b390610f4f565b80601f01602080910402602001604051908101604052809291908181526020018280546102df90610f4f565b801561032c5780601f106103015761010080835404028352916020019161032c565b820191906000526020600020905b81548152906001019060200180831161030f57829003601f168201915b5050505050925081805461033f90610f4f565b80601f016020809104026020016040519081016040528092919081815260200182805461036b90610f4f565b80156103b85780601f1061038d576101008083540402835291602001916103b8565b820191906000526020600020905b81548152906001019060200180831161039b57829003601f168201915b505050505091508080546103cb90610f4f565b80601f01602080910402602001604051908101604052809291908181526020018280546103f790610f4f565b80156104445780601f1061041957610100808354040283529160200191610444565b820191906000526020600020905b81548152906001019060200180831161042757829003601f168201915b50505050509050995099509950995099509950995099509950995090919293949596979899565b60008060000160009054906101000a900460ff16908060010154908060020154908060030154908060040154908060050154908060060154908060070154908060080180546104b990610f4f565b80601f01602080910402602001604051908101604052809291908181526020018280546104e590610f4f565b80156105325780601f1061050757610100808354040283529160200191610532565b820191906000526020600020905b81548152906001019060200180831161051557829003601f168201915b50505050509080600901805461054790610f4f565b80601f016020809104026020016040519081016040528092919081815260200182805461057390610f4f565b80156105c05780601f10610595576101008083540402835291602001916105c0565b820191906000526020600020905b8154815290600101906020018083116105a357829003601f168201915b50505050509080600a0180546105d590610f4f565b80601f016020809104026020016040519081016040528092919081815260200182805461060190610f4f565b801561064e5780601f106106235761010080835404028352916020019161064e565b820191906000526020600020905b81548152906001019060200180831161063157829003601f168201915b505050505090508b565b606080600080600b600001600b600101600b60020154600b6003015483805461068090610f4f565b80601f01602080910402602001604051908101604052809291908181526020018280546106ac90610f4f565b80156106f95780601f106106ce576101008083540402835291602001916106f9565b820191906000526020600020905b8154815290600101906020018083116106dc57829003601f168201915b5050505050935082805461070c90610f4f565b80601f016020809104026020016040519081016040528092919081815260200182805461073890610f4f565b80156107855780601f1061075a57610100808354040283529160200191610785565b820191906000526020600020905b81548152906001019060200180831161076857829003601f168201915b50505050509250935093509350935090919293565b60016000800160006101000a81548160ff0219169083151502179055508960006001018190555088600060020181905550876000600301819055508660006004018190555085600060050181905550846000600601819055508360006007018190555082600060080190805190602001906108169291906108a5565b5081600060090190805190602001906108309291906108a5565b50806000600a01908051906020019061084a9291906108a5565b5050505050505050505050565b83600b60000190805190602001906108709291906108a5565b5082600b600101908051906020019061088a9291906108a5565b5081600b6002018190555080600b6003018190555050505050565b8280546108b190610f4f565b90600052602060002090601f0160209004810192826108d3576000855561091a565b82601f106108ec57805160ff191683800117855561091a565b8280016001018555821561091a579182015b828111156109195782518255916020019190600101906108fe565b5b509050610927919061092b565b5090565b5b8082111561094457600081600090555060010161092c565b5090565b600081519050919050565b600082825260208201905092915050565b60005b83811015610982578082015181840152602081019050610967565b83811115610991576000848401525b50505050565b6000601f19601f8301169050919050565b60006109b382610948565b6109bd8185610953565b93506109cd818560208601610964565b6109d681610997565b840191505092915050565b6000819050919050565b6109f4816109e1565b82525050565b60006080820190508181036000830152610a1481876109a8565b90508181036020830152610a2881866109a8565b9050610a3760408301856109eb565b610a4460608301846109eb565b95945050505050565b600061014082019050610a63600083018d6109eb565b610a70602083018c6109eb565b610a7d604083018b6109eb565b610a8a606083018a6109eb565b610a9760808301896109eb565b610aa460a08301886109eb565b610ab160c08301876109eb565b81810360e0830152610ac381866109a8565b9050818103610100830152610ad881856109a8565b9050818103610120830152610aed81846109a8565b90509b9a5050505050505050505050565b60008115159050919050565b610b1381610afe565b82525050565b600061016082019050610b2f600083018e610b0a565b610b3c602083018d6109eb565b610b49604083018c6109eb565b610b56606083018b6109eb565b610b63608083018a6109eb565b610b7060a08301896109eb565b610b7d60c08301886109eb565b610b8a60e08301876109eb565b818103610100830152610b9d81866109a8565b9050818103610120830152610bb281856109a8565b9050818103610140830152610bc781846109a8565b90509c9b505050505050505050505050565b6000604051905090565b600080fd5b600080fd5b610bf6816109e1565b8114610c0157600080fd5b50565b600081359050610c1381610bed565b92915050565b600080fd5b600080fd5b7f4e487b7100000000000000000000000000000000000000000000000000000000600052604160045260246000fd5b610c5b82610997565b810181811067ffffffffffffffff82111715610c7a57610c79610c23565b5b80604052505050565b6000610c8d610bd9565b9050610c998282610c52565b919050565b600067ffffffffffffffff821115610cb957610cb8610c23565b5b610cc282610997565b9050602081019050919050565b82818337600083830152505050565b6000610cf1610cec84610c9e565b610c83565b905082815260208101848484011115610d0d57610d0c610c1e565b5b610d18848285610ccf565b509392505050565b600082601f830112610d3557610d34610c19565b5b8135610d45848260208601610cde565b91505092915050565b6000806000806000806000806000806101408b8d031215610d7257610d71610be3565b5b6000610d808d828e01610c04565b9a50506020610d918d828e01610c04565b9950506040610da28d828e01610c04565b9850506060610db38d828e01610c04565b9750506080610dc48d828e01610c04565b96505060a0610dd58d828e01610c04565b95505060c0610de68d828e01610c04565b94505060e08b013567ffffffffffffffff811115610e0757610e06610be8565b5b610e138d828e01610d20565b9350506101008b013567ffffffffffffffff811115610e3557610e34610be8565b5b610e418d828e01610d20565b9250506101208b013567ffffffffffffffff811115610e6357610e62610be8565b5b610e6f8d828e01610d20565b9150509295989b9194979a5092959850565b60008060008060808587031215610e9b57610e9a610be3565b5b600085013567ffffffffffffffff811115610eb957610eb8610be8565b5b610ec587828801610d20565b945050602085013567ffffffffffffffff811115610ee657610ee5610be8565b5b610ef287828801610d20565b9350506040610f0387828801610c04565b9250506060610f1487828801610c04565b91505092959194509250565b7f4e487b7100000000000000000000000000000000000000000000000000000000600052602260045260246000fd5b60006002820490506001821680610f6757607f821691505b602082108103610f7a57610f79610f20565b5b5091905056fea2646970667358221220b98c460bec9b63c7514f27231462edbeb1e9b5de7bf381cd9e7ae0f0ec57b87564736f6c634300080d0033",
  "immutableReferences": {},
  "source": "// SPDX-License-Identifier: GPL-3.0\npragma solidity >=0.7.0 <0.9.0;\n\ncontract Medeast{\n    /*\n    This struct contans necesory filds which the manofactur will fill\n    address Manufacturat -> this will hold the addras of the Manafactur.\n    uint BachNumber -> this will hold the bach number of the medicans.\n    uint Weight -> this will hold the total weight of the pakage.\n    uint deployDate -> this will hold the date whean the contract was made.\n    uint MfgDate -> this will hold the manafatur date of the medicans.\n    uint ExpDate -> this will hold the expire date of the medicans.\n    uint PricePerPack -> this will hold the price of the indavisul medicans in the pakages.\n    uint NumberOfPakages -> this will hold the total number of pakeges of medicans in the box.\n    string MfgLicNo -> thos holds the lisance of the mafactur.\n    string CompanyName -> this will hold the name ofn the compane.\n    string MedicineName -> this will hold the name of the medicins.\n    */\n    struct Medicine{\n        bool initialized;\n        uint BachNumber;\n        uint Weight;\n        uint deployDate;\n        uint MfgDate;\n        uint ExpDate;\n        uint PricePerPack;\n        uint NumberOfPakages;\n        string MfgLicNo;\n        string CompanyName;\n        string MedicineName;\n    }\n\n    /*\n     this is struct contans necesory filds for the geolocation and the tempratur of the \n     medican pakge which we will get from thr IOT device ,\n     string longatude -> this will store the longatude of thr pakage\n     string latatude -> this will store the latatude of the pakage \n     uint tempratur -> this will store the tempratur of the pakage\n     uint humedate -> this will store the humedate of the pakage\n    */\n    struct IotData{\n        string longatude;\n        string latatude;\n        uint tempratur;\n        uint humedate;\n    }\n\n    /*\n    hear we are making objacts of the struct\n    in this case \n    medicines -> object of Medicine\n    iotdata -> object of IotData\n    */ \n    Medicine public medicines;\n    IotData public iotdata;\n\n    /*\n    this constructor is just inatising defalt values\n    for medicines -> object of Medicine\n        iotdata -> object of IotData\n    */\n    constructor(){\n        medicines.initialized = false;\n        medicines.BachNumber = 0;\n        medicines.Weight = 0;\n        medicines.deployDate = 0;\n        medicines.MfgDate = 0;\n        medicines.ExpDate = 0;\n        medicines.PricePerPack = 0;\n        medicines.NumberOfPakages = 0;\n        medicines.MfgLicNo = \"None\";\n        medicines.CompanyName = \"None\";\n        medicines.MedicineName = \"None\";\n\n        iotdata.longatude = \"None\";\n        iotdata.latatude = \"None\";\n        iotdata.tempratur = 0;\n        iotdata.humedate = 0;\n    }\n\n    /*\n    this function will set data which will be send by the jascript.\n    */\n    function setData(\n        uint _BachNumber,\n        uint _Weight,\n        uint _deployDate,\n        uint _MfgDate,\n        uint _ExpDate,\n        uint _PricePerPack,\n        uint _NumberOfPakages,\n        string memory _MfgLicNo,\n        string memory _CompanyName,\n        string memory _MedicineName\n    ) public {\n        medicines.initialized = true;\n        medicines.BachNumber = _BachNumber;\n        medicines.Weight = _Weight;\n        medicines.deployDate = _deployDate;\n        medicines.MfgDate = _MfgDate;\n        medicines.ExpDate = _ExpDate;\n        medicines.PricePerPack = _PricePerPack;\n        medicines.NumberOfPakages = _NumberOfPakages;\n        medicines.MfgLicNo = _MfgLicNo;\n        medicines.CompanyName = _CompanyName;\n        medicines.MedicineName = _MedicineName;\n    }\n\n    /*\n        this function set data in iot data structor,\n    */\n    function setIotData(\n        string memory _longatude,\n        string memory _latatude,\n        uint _tempratur,\n        uint _humedate\n    )public{\n        iotdata.longatude = _longatude;\n        iotdata.latatude = _latatude;\n        iotdata.tempratur = _tempratur;\n        iotdata.humedate = _humedate;\n    }\n\n    /*\n    this function will get the datya from the blockchane and we \n    will use javascript to pull the data.\n    */\n    function getData() public view returns(\n        uint, uint, uint, uint, uint, uint, uint,\n        string memory,\n        string memory,\n        string memory\n    ){\n    return (\n        medicines.BachNumber,\n        medicines.Weight,\n        medicines.deployDate,\n        medicines.MfgDate,\n        medicines.ExpDate,\n        medicines.PricePerPack,\n        medicines.NumberOfPakages,\n        medicines.MfgLicNo,\n        medicines.CompanyName,\n        medicines.MedicineName\n        );\n    }\n\n    /*\n    this function wull  return geolacution and tempratur from the\n    blockchane.\n    */\n    function getIotData() public view returns(\n        string memory,\n        string memory,\n        uint,\n        uint\n    ){\n        return(\n            iotdata.longatude,\n            iotdata.latatude,\n            iotdata.tempratur,\n            iotdata.humedate\n        );\n    }\n\n\n}",
  "sourcePath": "/home/joydip/Desktop/Medeast/smart-contrac/contracts/MedeastContrac.sol",
  "compiler": {
    "name": "solc",
    "version": "0.8.13+commit.abaa5c0e.Emscripten.clang"
  },
  "schemaVersion": "3.4.7",
  "updatedAt": "2022-05-22T09:07:27.210Z",
  "networkType": "ethereum",
  "devdoc": {
    "kind": "dev",
    "methods": {},
    "version": 1
  },
  "userdoc": {
    "kind": "user",
    "methods": {},
    "version": 1
  }
}