{
  "contractName": "MedeastIOT",
  "abi": [
    {
      "inputs": [],
      "stateMutability": "nonpayable",
      "type": "constructor"
    },
    {
      "inputs": [],
      "name": "iotdata",
      "outputs": [
        {
          "internalType": "string",
          "name": "longatude",
          "type": "string"
        },
        {
          "internalType": "string",
          "name": "latatude",
          "type": "string"
        },
        {
          "internalType": "uint256",
          "name": "tempratur",
          "type": "uint256"
        },
        {
          "internalType": "uint256",
          "name": "humedate",
          "type": "uint256"
        }
      ],
      "stateMutability": "view",
      "type": "function",
      "constant": true
    },
    {
      "inputs": [
        {
          "internalType": "string",
          "name": "_longatude",
          "type": "string"
        },
        {
          "internalType": "string",
          "name": "_latatude",
          "type": "string"
        },
        {
          "internalType": "uint256",
          "name": "_tempratur",
          "type": "uint256"
        },
        {
          "internalType": "uint256",
          "name": "_humedate",
          "type": "uint256"
        }
      ],
      "name": "setIotData",
      "outputs": [],
      "stateMutability": "nonpayable",
      "type": "function"
    },
    {
      "inputs": [],
      "name": "getIotData",
      "outputs": [
        {
          "internalType": "string",
          "name": "",
          "type": "string"
        },
        {
          "internalType": "string",
          "name": "",
          "type": "string"
        },
        {
          "internalType": "uint256",
          "name": "",
          "type": "uint256"
        },
        {
          "internalType": "uint256",
          "name": "",
          "type": "uint256"
        }
      ],
      "stateMutability": "view",
      "type": "function",
      "constant": true
    }
  ],
  "bytecode": "0x608060405234801561001057600080fd5b506040518060400160405280600481526020017f4e6f6e650000000000000000000000000000000000000000000000000000000081525060008001908051906020019061005e9291906100c7565b506040518060400160405280600481526020017f4e6f6e6500000000000000000000000000000000000000000000000000000000815250600060010190805190602001906100ad9291906100c7565b5060008060020181905550600080600301819055506101ca565b8280546100d390610199565b90600052602060002090601f0160209004810192826100f5576000855561013c565b82601f1061010e57805160ff191683800117855561013c565b8280016001018555821561013c579182015b8281111561013b578251825591602001919060010190610120565b5b509050610149919061014d565b5090565b5b8082111561016657600081600090555060010161014e565b5090565b7f4e487b7100000000000000000000000000000000000000000000000000000000600052602260045260246000fd5b600060028204905060018216806101b157607f821691505b6020821081036101c4576101c361016a565b5b50919050565b6107b2806101d96000396000f3fe608060405234801561001057600080fd5b50600436106100415760003560e01c8063229892b514610046578063988cfa2914610067578063fe46a8e814610088575b600080fd5b61004e6100a4565b60405161005e94939291906104b5565b60405180910390f35b61006f6101d2565b60405161007f94939291906104b5565b60405180910390f35b6100a2600480360381019061009d919061067d565b610313565b005b60008060000180546100b59061074b565b80601f01602080910402602001604051908101604052809291908181526020018280546100e19061074b565b801561012e5780601f106101035761010080835404028352916020019161012e565b820191906000526020600020905b81548152906001019060200180831161011157829003601f168201915b5050505050908060010180546101439061074b565b80601f016020809104026020016040519081016040528092919081815260200182805461016f9061074b565b80156101bc5780601f10610191576101008083540402835291602001916101bc565b820191906000526020600020905b81548152906001019060200180831161019f57829003601f168201915b5050505050908060020154908060030154905084565b6060806000806000800160006001016000600201546000600301548380546101f99061074b565b80601f01602080910402602001604051908101604052809291908181526020018280546102259061074b565b80156102725780601f1061024757610100808354040283529160200191610272565b820191906000526020600020905b81548152906001019060200180831161025557829003601f168201915b505050505093508280546102859061074b565b80601f01602080910402602001604051908101604052809291908181526020018280546102b19061074b565b80156102fe5780601f106102d3576101008083540402835291602001916102fe565b820191906000526020600020905b8154815290600101906020018083116102e157829003601f168201915b50505050509250935093509350935090919293565b8360008001908051906020019061032b929190610360565b508260006001019080519060200190610345929190610360565b50816000600201819055508060006003018190555050505050565b82805461036c9061074b565b90600052602060002090601f01602090048101928261038e57600085556103d5565b82601f106103a757805160ff19168380011785556103d5565b828001600101855582156103d5579182015b828111156103d45782518255916020019190600101906103b9565b5b5090506103e291906103e6565b5090565b5b808211156103ff5760008160009055506001016103e7565b5090565b600081519050919050565b600082825260208201905092915050565b60005b8381101561043d578082015181840152602081019050610422565b8381111561044c576000848401525b50505050565b6000601f19601f8301169050919050565b600061046e82610403565b610478818561040e565b935061048881856020860161041f565b61049181610452565b840191505092915050565b6000819050919050565b6104af8161049c565b82525050565b600060808201905081810360008301526104cf8187610463565b905081810360208301526104e38186610463565b90506104f260408301856104a6565b6104ff60608301846104a6565b95945050505050565b6000604051905090565b600080fd5b600080fd5b600080fd5b600080fd5b7f4e487b7100000000000000000000000000000000000000000000000000000000600052604160045260246000fd5b61055e82610452565b810181811067ffffffffffffffff8211171561057d5761057c610526565b5b80604052505050565b6000610590610508565b905061059c8282610555565b919050565b600067ffffffffffffffff8211156105bc576105bb610526565b5b6105c582610452565b9050602081019050919050565b82818337600083830152505050565b60006105f46105ef846105a1565b610586565b9050828152602081018484840111156106105761060f610521565b5b61061b8482856105d2565b509392505050565b600082601f8301126106385761063761051c565b5b81356106488482602086016105e1565b91505092915050565b61065a8161049c565b811461066557600080fd5b50565b60008135905061067781610651565b92915050565b6000806000806080858703121561069757610696610512565b5b600085013567ffffffffffffffff8111156106b5576106b4610517565b5b6106c187828801610623565b945050602085013567ffffffffffffffff8111156106e2576106e1610517565b5b6106ee87828801610623565b93505060406106ff87828801610668565b925050606061071087828801610668565b91505092959194509250565b7f4e487b7100000000000000000000000000000000000000000000000000000000600052602260045260246000fd5b6000600282049050600182168061076357607f821691505b6020821081036107765761077561071c565b5b5091905056fea26469706673582212207b5a1fbf5897a1b5024eea0b6014c5d3c178a384ceab7b180dfd2a937c3ad44964736f6c634300080d0033",
  "immutableReferences": {},
  "source": "// SPDX-License-Identifier: GPL-3.0\npragma solidity >=0.7.0 <0.9.0;\n\ncontract MedeastIOT {\n    /*\n     this is struct contans necesory filds for the geolocation and the tempratur of the \n     medican pakge which we will get from thr IOT device ,\n     string longatude -> this will store the longatude of thr pakage\n     string latatude -> this will store the latatude of the pakage \n     uint tempratur -> this will store the tempratur of the pakage\n     uint humedate -> this will store the humedate of the pakage\n    */\n    struct IotData {\n        string longatude;\n        string latatude;\n        uint256 tempratur;\n        uint256 humedate;\n    }\n\n    /*\n    hear we are making objacts of the struct\n    in this case \n    iotdata -> object of IotData\n    */\n    IotData public iotdata;\n\n    /*\n    this constructor is just inatising defalt values\n    for iotdata -> object of IotData\n    */\n    constructor() {\n        iotdata.longatude = 'None';\n        iotdata.latatude = 'None';\n        iotdata.tempratur = 0;\n        iotdata.humedate = 0;\n    }\n\n    /*\n        this function set data in iot data structor,\n    */\n    function setIotData(\n        string memory _longatude,\n        string memory _latatude,\n        uint256 _tempratur,\n        uint256 _humedate\n    ) public {\n        iotdata.longatude = _longatude;\n        iotdata.latatude = _latatude;\n        iotdata.tempratur = _tempratur;\n        iotdata.humedate = _humedate;\n    }\n\n    /*\n    this function wull  return geolacution and tempratur from the\n    blockchane.\n    */\n    function getIotData()\n        public\n        view\n        returns (\n            string memory,\n            string memory,\n            uint256,\n            uint256\n        )\n    {\n        return (\n            iotdata.longatude,\n            iotdata.latatude,\n            iotdata.tempratur,\n            iotdata.humedate\n        );\n    }\n}\n",
  "sourcePath": "/home/joydip/Desktop/Medeast/smart-contrac/contracts/IOTContrac.sol",
  "compiler": {
    "name": "solc",
    "version": "0.8.13+commit.abaa5c0e.Emscripten.clang"
  },
  "schemaVersion": "3.4.7",
  "updatedAt": "2022-05-27T12:45:01.771Z",
  "networkType": "ethereum",
  "devdoc": {
    "kind": "dev",
    "methods": {},
    "version": 1
  },
  "userdoc": {
    "kind": "user",
    "methods": {},
    "version": 1
  }
}